{
  "_format": "hh-sol-artifact-1",
  "contractName": "Crowdfunding",
  "sourceName": "contracts/Crowdfunding .sol",
  "abi": [
    {
      "inputs": [
        {
          "internalType": "uint256",
          "name": "_goal",
          "type": "uint256"
        },
        {
          "internalType": "uint256",
          "name": "_durationInDays",
          "type": "uint256"
        }
      ],
      "stateMutability": "nonpayable",
      "type": "constructor"
    },
    {
      "anonymous": false,
      "inputs": [
        {
          "indexed": false,
          "internalType": "address",
          "name": "contributor",
          "type": "address"
        },
        {
          "indexed": false,
          "internalType": "uint256",
          "name": "amount",
          "type": "uint256"
        }
      ],
      "name": "ContributionReceived",
      "type": "event"
    },
    {
      "anonymous": false,
      "inputs": [
        {
          "indexed": false,
          "internalType": "uint256",
          "name": "amount",
          "type": "uint256"
        }
      ],
      "name": "FundsWithdrawn",
      "type": "event"
    },
    {
      "anonymous": false,
      "inputs": [
        {
          "indexed": false,
          "internalType": "uint256",
          "name": "totalAmount",
          "type": "uint256"
        }
      ],
      "name": "GoalReached",
      "type": "event"
    },
    {
      "inputs": [],
      "name": "campaignEnded",
      "outputs": [
        {
          "internalType": "bool",
          "name": "",
          "type": "bool"
        }
      ],
      "stateMutability": "view",
      "type": "function"
    },
    {
      "inputs": [],
      "name": "contribute",
      "outputs": [],
      "stateMutability": "payable",
      "type": "function"
    },
    {
      "inputs": [
        {
          "internalType": "address",
          "name": "",
          "type": "address"
        }
      ],
      "name": "contributions",
      "outputs": [
        {
          "internalType": "uint256",
          "name": "",
          "type": "uint256"
        }
      ],
      "stateMutability": "view",
      "type": "function"
    },
    {
      "inputs": [],
      "name": "deadline",
      "outputs": [
        {
          "internalType": "uint256",
          "name": "",
          "type": "uint256"
        }
      ],
      "stateMutability": "view",
      "type": "function"
    },
    {
      "inputs": [],
      "name": "getCampaignStatus",
      "outputs": [
        {
          "internalType": "uint256",
          "name": "_goal",
          "type": "uint256"
        },
        {
          "internalType": "uint256",
          "name": "_raisedAmount",
          "type": "uint256"
        },
        {
          "internalType": "uint256",
          "name": "_deadline",
          "type": "uint256"
        },
        {
          "internalType": "bool",
          "name": "_goalReached",
          "type": "bool"
        },
        {
          "internalType": "bool",
          "name": "_campaignEnded",
          "type": "bool"
        }
      ],
      "stateMutability": "view",
      "type": "function"
    },
    {
      "inputs": [],
      "name": "getRemainingTime",
      "outputs": [
        {
          "internalType": "uint256",
          "name": "",
          "type": "uint256"
        }
      ],
      "stateMutability": "view",
      "type": "function"
    },
    {
      "inputs": [],
      "name": "goal",
      "outputs": [
        {
          "internalType": "uint256",
          "name": "",
          "type": "uint256"
        }
      ],
      "stateMutability": "view",
      "type": "function"
    },
    {
      "inputs": [],
      "name": "goalReached",
      "outputs": [
        {
          "internalType": "bool",
          "name": "",
          "type": "bool"
        }
      ],
      "stateMutability": "view",
      "type": "function"
    },
    {
      "inputs": [],
      "name": "owner",
      "outputs": [
        {
          "internalType": "address",
          "name": "",
          "type": "address"
        }
      ],
      "stateMutability": "view",
      "type": "function"
    },
    {
      "inputs": [],
      "name": "raisedAmount",
      "outputs": [
        {
          "internalType": "uint256",
          "name": "",
          "type": "uint256"
        }
      ],
      "stateMutability": "view",
      "type": "function"
    },
    {
      "inputs": [],
      "name": "withdraw",
      "outputs": [],
      "stateMutability": "nonpayable",
      "type": "function"
    },
    {
      "stateMutability": "payable",
      "type": "receive"
    }
  ],
  "bytecode": "0x608060405234801561001057600080fd5b5060405161133638038061133683398181016040528101906100329190610161565b60008211610075576040517f08c379a000000000000000000000000000000000000000000000000000000000815260040161006c906101fe565b60405180910390fd5b600081116100b8576040517f08c379a00000000000000000000000000000000000000000000000000000000081526004016100af9061026a565b60405180910390fd5b336000806101000a81548173ffffffffffffffffffffffffffffffffffffffff021916908373ffffffffffffffffffffffffffffffffffffffff16021790555081600181905550620151808161010e91906102b9565b4261011991906102fb565b600381905550505061032f565b600080fd5b6000819050919050565b61013e8161012b565b811461014957600080fd5b50565b60008151905061015b81610135565b92915050565b6000806040838503121561017857610177610126565b5b60006101868582860161014c565b92505060206101978582860161014c565b9150509250929050565b600082825260208201905092915050565b7f476f616c206d7573742062652067726561746572207468616e20300000000000600082015250565b60006101e8601b836101a1565b91506101f3826101b2565b602082019050919050565b60006020820190508181036000830152610217816101db565b9050919050565b7f4475726174696f6e206d7573742062652067726561746572207468616e203000600082015250565b6000610254601f836101a1565b915061025f8261021e565b602082019050919050565b6000602082019050818103600083015261028381610247565b9050919050565b7f4e487b7100000000000000000000000000000000000000000000000000000000600052601160045260246000fd5b60006102c48261012b565b91506102cf8361012b565b92508282026102dd8161012b565b915082820484148315176102f4576102f361028a565b5b5092915050565b60006103068261012b565b91506103118361012b565b92508282019050808211156103295761032861028a565b5b92915050565b610ff88061033e6000396000f3fe6080604052600436106100a05760003560e01c806342e94c901161006457806342e94c901461017b5780637d3d6522146101b85780638da5cb5b146101e3578063c59ee1dc1461020e578063d7bb99ba14610239578063efb98bcf14610243576100af565b806310550515146100b457806329dcb0cf146100e35780633bc47fbe1461010e5780633ccfd60b146101395780634019388314610150576100af565b366100af576100ad61026e565b005b600080fd5b3480156100c057600080fd5b506100c9610510565b6040516100da9594939291906108be565b60405180910390f35b3480156100ef57600080fd5b506100f8610552565b6040516101059190610911565b60405180910390f35b34801561011a57600080fd5b50610123610558565b604051610130919061092c565b60405180910390f35b34801561014557600080fd5b5061014e61056b565b005b34801561015c57600080fd5b50610165610807565b6040516101729190610911565b60405180910390f35b34801561018757600080fd5b506101a2600480360381019061019d91906109aa565b61080d565b6040516101af9190610911565b60405180910390f35b3480156101c457600080fd5b506101cd610825565b6040516101da919061092c565b60405180910390f35b3480156101ef57600080fd5b506101f8610838565b60405161020591906109e6565b60405180910390f35b34801561021a57600080fd5b5061022361085c565b6040516102309190610911565b60405180910390f35b61024161026e565b005b34801561024f57600080fd5b50610258610862565b6040516102659190610911565b60405180910390f35b60035442106102b2576040517f08c379a00000000000000000000000000000000000000000000000000000000081526004016102a990610a5e565b60405180910390fd5b600460019054906101000a900460ff1615610302576040517f08c379a00000000000000000000000000000000000000000000000000000000081526004016102f990610aca565b60405180910390fd5b600073ffffffffffffffffffffffffffffffffffffffff163373ffffffffffffffffffffffffffffffffffffffff1603610371576040517f08c379a000000000000000000000000000000000000000000000000000000000815260040161036890610b36565b60405180910390fd5b600034116103b4576040517f08c379a00000000000000000000000000000000000000000000000000000000081526004016103ab90610bc8565b60405180910390fd5b600154346002546103c59190610c17565b1115610406576040517f08c379a00000000000000000000000000000000000000000000000000000000081526004016103fd90610c97565b60405180910390fd5b34600560003373ffffffffffffffffffffffffffffffffffffffff1673ffffffffffffffffffffffffffffffffffffffff16815260200190815260200160002060008282546104559190610c17565b92505081905550346002600082825461046e9190610c17565b925050819055507f1bb460ccaaf70fbacfec17a376f8acbd278c1405590ffcc8ebe4b88daf4f64ad33346040516104a6929190610cb7565b60405180910390a16001546002541061050e576001600460006101000a81548160ff0219169083151502179055507ffbfd8ab7c24300fa9888cd721c8565a7da56759384781283684dcf7c7c4a846b6002546040516105059190610911565b60405180910390a15b565b6000806000806000600154600254600354600460009054906101000a900460ff16600460019054906101000a900460ff16945094509450945094509091929394565b60035481565b600460019054906101000a900460ff1681565b60008054906101000a900473ffffffffffffffffffffffffffffffffffffffff1673ffffffffffffffffffffffffffffffffffffffff163373ffffffffffffffffffffffffffffffffffffffff16146105f9576040517f08c379a00000000000000000000000000000000000000000000000000000000081526004016105f090610d52565b60405180910390fd5b600460009054906101000a900460ff16610648576040517f08c379a000000000000000000000000000000000000000000000000000000000815260040161063f90610dbe565b60405180910390fd5b600460019054906101000a900460ff1615610698576040517f08c379a000000000000000000000000000000000000000000000000000000000815260040161068f90610e50565b60405180910390fd5b6002544710156106dd576040517f08c379a00000000000000000000000000000000000000000000000000000000081526004016106d490610ebc565b60405180910390fd5b6001600460016101000a81548160ff0219169083151502179055506000600254905060008060009054906101000a900473ffffffffffffffffffffffffffffffffffffffff1673ffffffffffffffffffffffffffffffffffffffff168260405161074690610f0d565b60006040518083038185875af1925050503d8060008114610783576040519150601f19603f3d011682016040523d82523d6000602084013e610788565b606091505b50509050806107cc576040517f08c379a00000000000000000000000000000000000000000000000000000000081526004016107c390610f6e565b60405180910390fd5b7f4a37b25aab49761ecf63117fe82b98d750917451133cf797507bc9fb5b96044a826040516107fb9190610911565b60405180910390a15050565b60015481565b60056020528060005260406000206000915090505481565b600460009054906101000a900460ff1681565b60008054906101000a900473ffffffffffffffffffffffffffffffffffffffff1681565b60025481565b600060035442106108765760009050610887565b426003546108849190610f8e565b90505b90565b6000819050919050565b61089d8161088a565b82525050565b60008115159050919050565b6108b8816108a3565b82525050565b600060a0820190506108d36000830188610894565b6108e06020830187610894565b6108ed6040830186610894565b6108fa60608301856108af565b61090760808301846108af565b9695505050505050565b60006020820190506109266000830184610894565b92915050565b600060208201905061094160008301846108af565b92915050565b600080fd5b600073ffffffffffffffffffffffffffffffffffffffff82169050919050565b60006109778261094c565b9050919050565b6109878161096c565b811461099257600080fd5b50565b6000813590506109a48161097e565b92915050565b6000602082840312156109c0576109bf610947565b5b60006109ce84828501610995565b91505092915050565b6109e08161096c565b82525050565b60006020820190506109fb60008301846109d7565b92915050565b600082825260208201905092915050565b7f43616d706169676e2068617320656e6465640000000000000000000000000000600082015250565b6000610a48601283610a01565b9150610a5382610a12565b602082019050919050565b60006020820190508181036000830152610a7781610a3b565b9050919050565b7f43616d706169676e206973206e6f206c6f6e6765722061637469766500000000600082015250565b6000610ab4601c83610a01565b9150610abf82610a7e565b602082019050919050565b60006020820190508181036000830152610ae381610aa7565b9050919050565b7f5a65726f2061646472657373206e6f7420616c6c6f7765640000000000000000600082015250565b6000610b20601883610a01565b9150610b2b82610aea565b602082019050919050565b60006020820190508181036000830152610b4f81610b13565b9050919050565b7f436f6e747269627574696f6e206d75737420626520677265617465722074686160008201527f6e20300000000000000000000000000000000000000000000000000000000000602082015250565b6000610bb2602383610a01565b9150610bbd82610b56565b604082019050919050565b60006020820190508181036000830152610be181610ba5565b9050919050565b7f4e487b7100000000000000000000000000000000000000000000000000000000600052601160045260246000fd5b6000610c228261088a565b9150610c2d8361088a565b9250828201905080821115610c4557610c44610be8565b5b92915050565b7f43616e6e6f742065786365656420676f616c20616d6f756e7400000000000000600082015250565b6000610c81601983610a01565b9150610c8c82610c4b565b602082019050919050565b60006020820190508181036000830152610cb081610c74565b9050919050565b6000604082019050610ccc60008301856109d7565b610cd96020830184610894565b9392505050565b7f4f6e6c79206f776e65722063616e2063616c6c20746869732066756e6374696f60008201527f6e00000000000000000000000000000000000000000000000000000000000000602082015250565b6000610d3c602183610a01565b9150610d4782610ce0565b604082019050919050565b60006020820190508181036000830152610d6b81610d2f565b9050919050565b7f476f616c20686173206e6f74206265656e207265616368656400000000000000600082015250565b6000610da8601983610a01565b9150610db382610d72565b602082019050919050565b60006020820190508181036000830152610dd781610d9b565b9050919050565b7f46756e6473206861766520616c7265616479206265656e20776974686472617760008201527f6e00000000000000000000000000000000000000000000000000000000000000602082015250565b6000610e3a602183610a01565b9150610e4582610dde565b604082019050919050565b60006020820190508181036000830152610e6981610e2d565b9050919050565b7f496e73756666696369656e7420636f6e74726163742062616c616e6365000000600082015250565b6000610ea6601d83610a01565b9150610eb182610e70565b602082019050919050565b60006020820190508181036000830152610ed581610e99565b9050919050565b600081905092915050565b50565b6000610ef7600083610edc565b9150610f0282610ee7565b600082019050919050565b6000610f1882610eea565b9150819050919050565b7f4661696c656420746f2073656e64204574686572000000000000000000000000600082015250565b6000610f58601483610a01565b9150610f6382610f22565b602082019050919050565b60006020820190508181036000830152610f8781610f4b565b9050919050565b6000610f998261088a565b9150610fa48361088a565b9250828203905081811115610fbc57610fbb610be8565b5b9291505056fea26469706673582212208111e3e0246e869a5ea1dac6c3adca02e2ccca1f5df3c52357c2c9c778e67cb364736f6c634300081b0033",
  "linkReferences": {},
  "deployedLinkReferences": {}
}